:020000040800F2
:1000000000280020ED190008351600083B160008EE
:1000100041160008471600084D16000800000000B1
:10002000000000000000000000000000531600085F
:100030005F160008000000006B1600087716000825
:10004000351A0008351A0008351A0008351A000854
:10005000351A0008351A0008351A0008351A000844
:10006000351A0008351A0008351A0008351A000834
:10007000351A0008351A0008351A0008351A000824
:10008000351A0008351A0008351A0008351A000814
:10009000351A0008351A0008351A0008351A000804
:1000A000351A0008351A0008351A0008351A0008F4
:1000B00085160008351A000800000000351A0008EF
:1000C000351A00080000000000000000351A000882
:1000D00000000000351A0008351A00080000000072
:1000E000351A0008351A0008351A0008000000000B
:1000F0000000000000000000000000000000000000
:0C01000000000000000000005FF808F1A3
:10010C0010B5054C237833B9044B13B10448AFF345
:10011C0000800123237010BDFC00002000000000B3
:10012C001032000808B5034B1BB103490348AFF369
:10013C00008008BD00000000000100201032000803
:10014C0090B583B000AF204B1B6893F90730DAB23F
:10015C001E4B1A701C4B1B6893F90830DAB21B4B00
:10016C005A701B4B1B6893F90730DAB2194B1A7093
:10017C00174B1B6893F90830DAB2164B5A700023F0
:10018C00FB7119E0FB79144A52F82300FB79134AEE
:10019C0032F813300122194600F046FB0346FC7975
:1001AC001A460F490F4800F08DFB03460E4A42F8E1
:1001BC002430FB790133FB71FB79032BE2D900BFAF
:1001CC0000BF0C37BD4690BDA801002018010020CF
:1001DC00AC0100201C0100200800002000000020C1
:1001EC0018000020280000202001002080B582B0DB
:1001FC0000AF244B1B6893F90730DAB2224B1A700C
:10020C00204B1B6893F90830DAB21F4B5A701F4B06
:10021C001B6893F90730DAB21D4B1A701B4B1B6825
:10022C0093F90830DAB21A4B5A700023FB7120E0B4
:10023C00FB79184A52F82330DB6BFA79154951F8DF
:10024C002200FA7912498A5C11469847FB790233ED
:10025C00104A52F82330DB6BFA7902320D4951F80F
:10026C002200FA7908498A5C11469847FB790133D8
:10027C00FB71FB79012BDBD900BF00BF0837BD46F2
:10028C0080BD00BFA801002018010020AC01002097
:10029C001C0100202001002080B582B000AFFFF7C8
:1002AC00A5FF264B1B781A46254B53F822305B6B67
:1002BC00DB68224A12781146214A52F82120526BEF
:1002CC00104698470023FB7114E01C4B1B78FA79FD
:1002DC009A420CD0FB791A4A52F823305B6B1B699B
:1002EC00FA79174951F82220526B10469847FB793E
:1002FC000133FB71FB79032BE7D9104B1B781A46A2
:10030C000F4B53F822309B6B0C4A127811460C4A57
:10031C0052F8212010469847084B1B7801335A425B
:10032C0003F0030302F0030258BF5342DAB2034B4B
:10033C001A7000BF0837BD4680BD00BF30010020D9
:10034C002001002080B500AF114B1B68114A1188A9
:10035C000022184600F042FB03460F4A13600C4B78
:10036C005B680C4A51880022184600F037FB0346A4
:10037C000A4A1360064B9B68064A9188002218466D
:10038C0000F02CFB0346064A136000BF80BD00BF83
:10039C004C000020440000203401002038010020D3
:1003AC003C01002080B500AF0B4B1B685B690A4A0F
:1003BC00126810469847094B1B685B69074A12681C
:1003CC0010469847064B1B685B69054A1268104635
:1003DC00984700BF80BD00BF3401002038010020C9
:1003EC003C01002080B584B000AF03460A46FB8078
:1003FC001346BB80142002F043FE0346FB60FB68EF
:10040C00FA881A80FB68BA885A80FB6800229A80A6
:10041C00FB68064A9A60FB68054ADA60FB68054A85
:10042C001A61FB6818461037BD4680BD45040008AC
:10043C006F040008A304000880B483B000AF786098
:10044C007B681A887B685B88B2FBF3F39AB27B6893
:10045C009A807B6800229A7100BF0C37BD4680BC25
:10046C00704780B483B000AF78600B467B807B68AC
:10047C007A881A807B681A887B685B88B2FBF3F3F6
:10048C009AB27B689A807B6800229A7100BF0C3705
:10049C00BD4680BC704780B483B000AF78607B6889
:1004AC009B88002B0CD07B689B88013B9AB27B68A5
:1004BC009A807B689B88002B02D17B6801229A7101
:1004CC0000BF0C37BD4680BC7047000080B584B0BF
:1004DC0000AF78600B467B8013467B70182002F0CF
:1004EC00CFFD0346FB60FB687A681A60FB687A886C
:1004FC009A80FB687A789A71FB68084A9A60FB6864
:10050C00074A1A61FB68074A5A61FB68064ADA60B7
:10051C00FB6818461037BD4680BD00BF3905000882
:10052C007B050008970500085B05000880B582B0C4
:10053C0000AF78607B6818687B6899887B689B79CA
:10054C001A4601F076FD00BF0837BD4680BD80B568
:10055C0082B000AF78607B681A687B689B8819460C
:10056C00104601F07EFD00BF0837BD4680BD80B54A
:10057C0082B000AF78607B6800229A717868FFF7D0
:10058C00D5FF00BF0837BD4680BD80B582B000AF37
:10059C0078607B6801229A717868FFF7C7FF00BF0B
:1005AC000837BD4680BD000080B584B000AF03465F
:1005BC00FB710B46BB7113467B711C2002F060FD76
:1005CC000346FB6097F90720FB681A7097F9062021
:1005DC00FB685A7097F90520FB689A70FB680A4A09
:1005EC00DA60FB68094A1A61FB68094A5A61FB68C0
:1005FC00084A9A61FB689B69F8689847FB6818463B
:10060C001037BD4680BD00BF2506000867060008F0
:10061C00E50600087107000880B582B000AF78606D
:10062C00084611461A460346FB700B46BB70134630
:10063C007B7097F903207B681A7097F902207B680E
:10064C005A7097F901207B689A707B689B6978686F
:10065C00984700BF0837BD4680BD80B582B000AF5B
:10066C0078607B6893F90230DBB20133DBB25AB2AB
:10067C007B689A707B6893F902303B2B0BDD7B68AF
:10068C0000229A707B6893F90130DBB20133DBB244
:10069C005AB27B685A707B6893F901303B2B0BDDA7
:1006AC007B6800225A707B6893F90030DBB201330F
:1006BC00DBB25AB27B681A707B6893F90030172B47
:1006CC0002DD7B6800221A707B689B69786898470A
:1006DC0000BF0837BD4680BD80B582B000AF7860E2
:1006EC007B6893F90230DBB2013BDBB25AB27B6818
:1006FC009A707B6893F90230002B0BDA7B683C22F2
:10070C009A707B6893F90130DBB2013BDBB25AB2D1
:10071C007B685A707B6893F90130002B0BDA7B688D
:10072C003C225A707B6893F90030DBB2013BDBB2A0
:10073C005AB27B681A707B6893F90030002B08DA88
:10074C007B6800221A707B6800225A707B6800223A
:10075C009A707B689B697868984700BF0837BD46DC
:10076C0080BD000080B483B000AF78607B6893F9E3
:10077C0000302C4A82FB03129210DB17D31A5AB2A8
:10078C007B68DA707B6893F90020264B83FB02139D
:10079C009910D317C91A0B469B000B445B00D31A54
:1007AC005AB27B681A717B6893F901301D4A82FB3F
:1007BC0003129210DB17D31A5AB27B685A717B68FA
:1007CC0093F90120174B83FB02139910D317C91A05
:1007DC000B469B000B445B00D31A5AB27B689A7190
:1007EC007B6893F902300F4A82FB03129210DB17DD
:1007FC00D31A5AB27B68DA717B6893F90220094BE1
:10080C0083FB02139910D317C91A0B469B000B4498
:10081C005B00D31A5AB27B681A7200BF0C37BD4604
:10082C0080BC70476766666680B584B000AF786040
:10083C000B467B8013467B70142002F021FC034690
:10084C00FB60FB687A881A80FB687A685A60FB68E0
:10085C007A781A72FB68054ADA60FB68044A1A61F6
:10086C00FB6818461037BD4680BD00BF81080008E4
:10087C00A908000880B582B000AF78607B680022C0
:10088C001A727B6858687B6819887B681B7A1A46D1
:10089C0001F0CFFB00BF0837BD4680BD80B582B0EC
:1008AC0000AF78607B6801221A727B6858687B689D
:1008BC0019887B681B7A1A4601F0BBFB00BF08370E
:1008CC00BD4680BD80B586B000AFF860B9607A6077
:1008DC00402002F0D5FB03463B610023FB751BE077
:1008EC00FB7D5B00BA681344FA7D19883B6923F8D9
:1008FC001210FB7D9B00FA681344FA7D19683B6962
:10090C00043243F82210FB7D3A691344012283F828
:10091C002C20FB7D0133FB75FB7D062BE0D93B695D
:10092C007A685A633B69054A9A633B69044ADA63FD
:10093C003B6918461837BD4680BD00BF51090008F9
:10094C009909000880B584B000AF78600023FB7370
:10095C0013E0FA7B7B68043253F82200FA7B7B6845
:10096C0033F81210FB7B7A68134493F82C301A4638
:10097C0001F05FFBFB7B0133FB73FB7B062BE8D9A0
:10098C0000BF00BF1037BD4680BD000080B485B0ED
:10099C0000AF78600B46FB700023FB7313E0FB7811
:1009AC000D4AD35C1A46FB7B42FA03F3DAB2FB7BAB
:1009BC0002F00102D1B27A6813440A4683F82C2063
:1009CC00FB7B0133FB73FB7B062BE8D900BF00BF1D
:1009DC001437BD4680BC70475800002080B586B0E7
:1009EC0000AFF8600B467A607B811C2002F048FB5C
:1009FC0003463B613B69FA685A603B697A891A8005
:100A0C003B697A689A600023FB7507E0FB7D3A69C5
:100A1C00134401221A73FB7D0133FB75FB7D032B01
:100A2C00F4D93B6900221A743B69054A5A613B6947
:100A3C00044A9A613B6918461837BD4680BD00BF11
:100A4C00D10A00080F0B000880B584B000AF7860A5
:100A5C000023FB730CE0FB7B5A1CFB7B79680A447C
:100A6C00117B7A6813440A461A73FB7B0133FB73C0
:100A7C00FB7B012BEFD97B685A687B681B88194676
:100A8C00104601F0BFFA03461A467B689A7300239E
:100A9C00BB730FE0BB7B7A6813441A7BBB7B0133BF
:100AAC0079680B441B7B9A4201D0002306E0BB7B88
:100ABC000133BB73BB7B012BECD9012318461037D8
:100ACC00BD4680BD80B582B000AF78607868FFF716
:100ADC00BBFF0346012B10D17B68DA7B7B689B7BC9
:100AEC009A420AD07B689A7B7B68DA737B689B7B23
:100AFC00002B02D17B6801221A7400BF0837BD4657
:100B0C0080BD80B582B000AF78600B467B80786882
:100B1C00FFF79AFF0346012B27D17B68DA7B7B68B2
:100B2C009B7B9A4212D07B689A7B7B68DA737B68DA
:100B3C009B7B002B19D17B6801221A747B689B6804
:100B4C009B687A689268104698470EE07B689B68B1
:100B5C001B697A689268104698477B689B689B79FA
:100B6C00012B02D17B680122DA7300BF0837BD4626
:100B7C0080BD000080B586B000AFF860B9607A60C7
:100B8C00342002F07DFA03467B61FB681868BB6871
:100B9C001B8801221946FFF799FC02467B691A60F3
:100BAC00FB6804331868BB6802331B8801221946A2
:100BBC00FFF78CFC02467B695A60FB6808331868A7
:100BCC00BB6804331B8801221946FFF77FFC0246E1
:100BDC007B699A607B6900221A747B697A68DA6097
:100BEC007B690E4A9A617B690D4A5A627B690D4A90
:100BFC00DA617B690C4A1A627B690C4A1A637B695D
:100C0C000B4A9A627B690B4ADA627B690A4A5A611F
:100C1C007B6918461837BD4680BD00BFAD0D000876
:100C2C005B0E0008E70D0008210E0008090F0008F4
:100C3C00950E0008CF0E0008490C000890B585B041
:100C4C0000AFF860B96011461A460B46FB8013469C
:100C5C00BB80FB681B7C042B00F2948001A252F831
:100C6C0023F000BF850C0008A50C0008E90C000857
:100C7C002D0D0008710D0008FB689B69F8689847FA
:100C8C00FB6801221A74FB68DB68DB68FA68D268BF
:100C9C00F988104698477CE0FB68DB69F868984750
:100CAC00FB68DB689B79012B6ED1FB6803221A74FD
:100CBC00FB68DB68DB68FA68D268398C10469847A9
:100CCC00BB68DC683B8C354AA2FB03239B099BB2B7
:100CDC00DBB200220021B868A04755E0FB681B6A14
:100CEC00F8689847FB68DB689B79012B4ED1FB6851
:100CFC0001221A74FB68DB68DB68FA68D268F98831
:100D0C0010469847BB68DC68FB88244AA2FB032387
:100D1C009B099BB2DBB200220021B868A04735E0EA
:100D2C00FB685B6AF8689847FB68DB689B79012B6A
:100D3C002ED1FB6802221A74FB68DB68DB68FA6848
:100D4C00D268B98810469847BB68DC68BB88134AE0
:100D5C00A2FB03239B099BB2DBB200220021B868E3
:100D6C00A04715E0FB689B69F8689847FB6803226D
:100D7C001A74FB68DB68DB68FA68D268398C104639
:100D8C00984706E000BF04E000BF02E000BF00E0AF
:100D9C0000BF00BF1437BD4690BD00BFD34D6210DD
:100DAC0080B582B000AF78607B681B685B697A683D
:100DBC001268104698477B685B685B697A68526872
:100DCC00104698477B689B685B697A689268104606
:100DDC00984700BF0837BD4680BD80B582B000AFD4
:100DEC0078607B681B681B697A68126810469847A4
:100DFC007B685B685B697A685268104698477B68C9
:100E0C009B685B697A6892681046984700BF083700
:100E1C00BD4680BD80B582B000AF78607B681B6832
:100E2C005B697A681268104698477B685B681B6937
:100E3C007A685268104698477B689B685B697A6849
:100E4C0092681046984700BF0837BD4680BD80B5F4
:100E5C0082B000AF78607B681B685B697A68126847
:100E6C00104698477B685B685B697A6852681046E5
:100E7C0098477B689B681B697A689268104698470C
:100E8C0000BF0837BD4680BD80B582B000AF78602A
:100E9C007B681B68DB687A681268104698477B6829
:100EAC005B685B697A685268104698477B689B68F8
:100EBC005B697A6892681046984700BF0837BD4650
:100ECC0080BD80B582B000AF78607B681B685B69C1
:100EDC007A681268104698477B685B68DB687A68AA
:100EEC005268104698477B689B685B697A68926881
:100EFC001046984700BF0837BD4680BD80B582B00C
:100F0C0000AF78607B681B685B697A681268104672
:100F1C0098477B685B685B697A68526810469847AB
:100F2C007B689B68DB687A6892681046984700BFBC
:100F3C000837BD4680BD000080B586B000AF07F114
:100F4C00080300221A605A609A60DA60294B9B6988
:100F5C00284A43F004039361264B9B6903F0040376
:100F6C007B607B68234B9B69224A43F008039361A7
:100F7C00204B9B6903F008033B603B6800224FF455
:100F8C0070711D4801F055F800224FF67F411B4847
:100F9C0001F04FF84FF47073BB600123FB6000232A
:100FAC003B6102237B6107F108031946124800F0EC
:100FBC00ADFE4FF67F43BB600123FB6000233B611A
:100FCC0002237B6107F1080319460C4800F09EFED2
:100FDC004FF46043BB600023FB6001233B6107F1CE
:100FEC0008031946044800F091FE00BF1837BD46AF
:100FFC0080BD00BF0010024000080140000C014001
:10100C0080B500AF00F012FD00F016F8FFF794FF6A
:10101C0000F078FB074801F075FC00F08DFA00F049
:10102C002DFCFFF78DF8FFF78DF900F0E9F800F0D3
:10103C003FF8FAE75801002080B590B000AF07F1F7
:10104C00180328220021184602F022F83B1D00222A
:10105C001A605A609A60DA601A610223BB6101233C
:10106C00BB621023FB6200237B6307F11803184655
:10107C0001F010F80346002B01D000F055F80F23B7
:10108C007B600023BB600023FB6000233B610023DB
:10109C007B613B1D0021184601F07EFA0346002BB4
:1010AC0001D000F041F800BF4037BD4680BD0000C4
:1010BC0080B500AF074B1B689B79012B08D1054B02
:1010CC001B689B68034A126810469847FFF7E4F8C0
:1010DC0000BF80BD4C01002080B582B000AF7860AD
:1010EC007B681B68B3F1804F15D10D4B1B68DB6817
:1010FC001B690B4A1268D26810469847094B1B684B
:10110C00DB681B69074A1268D26810469847FFF7DC
:10111C0049F900F047FA00BF0837BD4680BD00BF53
:10112C00A0010020A401002080B400AF72B600BF63
:10113C00FEE7000080B400AF0E4B1B681B7C012B3C
:10114C0013D10C4B1B6800221A740B4B1B785A1CC6
:10115C000A4B83FB02135910D317C91A0B469B0079
:10116C000B44D11ACAB2044B1A7000BFBD4680BCE6
:10117C00704700BF3401002040010020676666669E
:10118C0080B400AF064B00221A80064B00221A8056
:10119C00054B00221A8000BFBD4680BC704700BFC3
:1011AC0042010020440100204601002080B483B09D
:1011BC0000AF78600F4B1B681B7C012B13D10D4BC0
:1011CC001B6800221A747B681B8801330A4A82FB55
:1011DC0003125113DA178A1A084901FB02F29A1A00
:1011EC0092B27B681A807B681B8818460C37BD4608
:1011FC0080BC70473801002089B5F814A086010026
:10120C00B0B500AFFFF796FF814B1B78042B00F2B3
:10121C00718101A252F823F03912000873120008F0
:10122C00011300088F13000855140008794B1B6834
:10123C009B79012B14D1774B1B689B68754A1268FC
:10124C0010469847744B1B685B69734A12681046CA
:10125C009847724B1B685B69704A12681046984736
:10126C0000F084FB4DE16E4B1B689B79012B14D174
:10127C006B4B1B689B686A4A126810469847694B0F
:10128C001B689B6A674A126810469847664B1B6836
:10129C009B6A654A126810469847604B1B68DC686D
:1012AC005E4B1868012300220021A0475A4B1B6893
:1012BC00DC68594B1D685D48FFF778FF0346DBB2CD
:1012CC00002200212846A047594B1B681B7C012B90
:1012DC0040F01281564B1B6800221A74534B1B882A
:1012EC001A465201D21A92001344DB009AB2514BA7
:1012FC001A8001E14A4B1B689B79012B14D1484B96
:10130C001B689B68464A126810469847454B1B68F9
:10131C00DB6A444A126810469847434B1B68DB6AE9
:10132C00414A1268104698473C4B1B68DC683B4BA3
:10133C001868022300220021A047374B1B68DC6889
:10134C00354B1D683C48FFF731FF0346DBB20022EA
:10135C0000212846A047364B1B681B7C012B40F014
:10136C00CD80334B1B6800221A74334B1B881A46F2
:10137C005201D21A92001344DB009AB22F4B1A80FE
:10138C00BCE0274B1B689B79012B14D1244B1B68A9
:10139C009B68234A126810469847224B1B681B6BAC
:1013AC00204A1268104698471F4B1B681B6B1E4A3D
:1013BC00126810469847194B1B68DC68174B186865
:1013CC00032300220021A047134B1B68DC68124B3F
:1013DC001D681B48FFF7EAFE0346DBB20022002122
:1013EC002846A047124B1B681B7C012B40F08880C1
:1013FC000F4B1B6800221A74114B1B881A465201A2
:10140C00D21A92001344DB009AB20E4B1A8077E08A
:10141C004001002050010020A8010020AC01002058
:10142C0048010020A4010020A0010020420100205E
:10143C003C010020B801002044010020B60100202E
:10144C0046010020BA010020FFF79AFE2E4B1B88A4
:10145C002E4A11882E4A1288184600F0C3F92D4BDB
:10146C001B882D4A11882D4A1288184600F0E0F985
:10147C002B4B1B68DB68DB68294A1268D26823494E
:10148C00098810469847274B1B68DB68DB68254AA0
:10149C001268D2682049098810469847204B1B686F
:1014AC0000221A741F4B1B6804221A741E4B1B68F3
:1014BC00DC681D4B1868194B1B881C4AA2FB0323C4
:1014CC009B099BB2DBB200220021A047184B1B6882
:1014DC00DC68174B18680C4B1B88144AA2FB0323BF
:1014EC009B099BB2DBB200220021A047114B0022CA
:1014FC001A7006E000BF04E000BF02E000BF00E08D
:10150C0000BF00BFB0BD00BFB8010020B601002075
:10151C00BA010020B2010020B0010020B40100206B
:10152C00A0010020A4010020A8010020D34D6210CE
:10153C00AC0100204001002080B500AF32214FF4F7
:10154C00FA70FEF74FFF0346134A13603221FA205C
:10155C00FEF748FF0346114A136032214FF47A70AC
:10156C00FEF740FF03460E4A13600B4B1B689B684B
:10157C00094A126810469847084B1B689B68074A33
:10158C00126810469847064B1B689B68044A126801
:10159C001046984700BF80BD480100204C01002038
:1015AC005001002080B500AF0B4B1B681B690A4A29
:1015BC00126810469847094B1B681B69074A12684A
:1015CC0010469847064B1B681B69054A1268104663
:1015DC00984700BF80BD00BF480100204C0100208F
:1015EC005001002080B483B000AF0E4B9B690D4AB4
:1015FC0043F0010393610B4B9B6903F001037B6088
:10160C007B68084BDB69074A43F08053D361054B79
:10161C00DB6903F080533B603B6800BF0C37BD4671
:10162C0080BC70470010024080B400AFFEE780B46D
:10163C0000AFFEE780B400AFFEE780B400AFFEE77A
:10164C0080B400AFFEE780B400AF00BFBD4680BCE5
:10165C00704780B400AF00BFBD4680BC704780B4FB
:10166C0000AF00BFBD4680BC704780B500AF00F036
:10167C0023FA00BF80BD000080B500AF024801F026
:10168C008DF900BF80BD00BF5801002080B586B029
:10169C0000AF7860144A154BD31A7B617B693B61B0
:1016AC00134B1B68002B02D1114B124A1A60104BC2
:1016BC001A687B6813443A699A4207D201F0B6FC67
:1016CC0003460C221A604FF0FF3309E0084B1B68ED
:1016DC00FB60074B1A687B681344054A1360FB6870
:1016EC0018461837BD4680BD0028002000040000B5
:1016FC0054010020D001002080B400AF00BFBD46D3
:10170C0080BC704780B586B000AF07F1080300229B
:10171C001A605A609A60DA603B4600221A605A607E
:10172C001D4B4FF080421A601B4B49F63F425A60EA
:10173C00194B00229A60184B0922DA60164B0022D2
:10174C001A61154B00229A61134801F08BF803467D
:10175C00002B01D0FFF7E8FC4FF48053BB6007F17E
:10176C00080319460C4801F021FA0346002B01D05E
:10177C00FFF7DAFC00233B6000237B603B461946F5
:10178C00054801F0E9FB0346002B01D0FFF7CCFC28
:10179C0000BF1837BD4680BD5801002080B584B00D
:1017AC0000AF78607B681B68B3F1804F13D10C4B92
:1017BC00DB690B4A43F00103D361094BDB6903F08E
:1017CC000103FB60FB68002200211C2000F067FA7B
:1017DC001C2000F080FA00BF1037BD4680BD00BF52
:1017EC000010024080B483B000AF0346FB800B4670
:1017FC00BB8013467B800B4B4FF4FA621A80094B6B
:10180C001B88FA88D31A9AB2074B1A807A88BB883D
:10181C0013449AB2054B1A8000BF0C37BD4680BCEE
:10182C00704700BFB0010020B4010020B2010020BD
:10183C0080B483B000AF0346FB800B46BB801346DD
:10184C007B800B4B4FF4FA621A80094B1B88FA8889
:10185C00D31A9AB2074B1A807A88BB8813449AB26F
:10186C00054B1A8000BF0C37BD4680BC704700BFCB
:10187C00B6010020BA010020B801002080B500AFED
:10188C004FF47A624FF4FA6141F28830FFF7AAFF05
:10189C00284B1B88284A1188284A12881846FFF7BB
:1018AC00C7FF274B1B8832211846FEF79BFD0346CA
:1018BC001A4624492448FFF75DF90346234A13606E
:1018CC001D4B1B8832211846FEF78CFD03461A4629
:1018DC001F492048FFF74EF903461F4A13601B4B64
:1018EC001B6800221A741C4B1B6804221A74134BBD
:1018FC001B881A4AA2FB03239B099BB2DBB21A4634
:10190C0000210020FEF750FE0346154A1360154BCC
:10191C001B88124AA2FB03239B099BB2DBB21A461B
:10192C0000210020FEF740FE03460F4A136000BF63
:10193C0080BD00BFB2010020B0010020B401002026
:10194C00B60100207000002084000020A0010020BF
:10195C006800002078000020A4010020D34D621004
:10196C00A8010020B8010020AC010020B0B582B065
:10197C0002AF114B1B685C690F4B18680F4B196851
:10198C000F4B1A880F4B1D880F4B1B8800932B464F
:10199C00A0470E4B1B685C690C4B18680C4B196804
:1019AC000C4B1A880C4B1D880C4B1B8800932B4638
:1019BC00A04700BFBD46B0BDA4010020A801002077
:1019CC00B2010020B0010020B4010020A0010020D1
:1019DC00AC010020B8010020B6010020BA010020A3
:1019EC000C480D490D4A002302E0D458C45004336E
:1019FC00C4188C42F9D30A4A0A4C002301E0136044
:101A0C000432A242FBD3FFF777FE01F015FBFFF780
:101A1C00F7FA704700000020FC000020503200084C
:101A2C00FC000020D0010020FEE7000080B500AFD4
:101A3C00084B1B68074A43F010031360032000F0A7
:101A4C0023F90F2000F008F8FFF7CCFD002318460F
:101A5C0080BD00BF0020024080B582B000AF78602E
:101A6C00124B1A68124B1B7819464FF47A73B3FB5E
:101A7C00F1F3B2FBF3F3184600F03BF90346002BED
:101A8C0001D001230EE07B680F2B0AD80022796865
:101A9C004FF0FF3000F003F9064A7B681360002317
:101AAC0000E0012318460837BD4680BD64000020C5
:101ABC00940000209000002080B400AF054B1B78F0
:101ACC001A46054B1B681344034A136000BFBD46FE
:101ADC0080BC704794000020BC01002080B400AF93
:101AEC00024B1B681846BD4680BC7047BC010020E9
:101AFC0080B485B000AF78607B6803F00703FB60AF
:101B0C000C4BDB68BB60BA684FF6FF031340BB603D
:101B1C00FB681A02BB68134343F0BF6343F4003302
:101B2C00BB60044ABB68D36000BF1437BD4680BCA1
:101B3C00704700BF00ED00E080B400AF044BDB68E1
:101B4C001B0A03F007031846BD4680BC704700BF54
:101B5C0000ED00E080B483B000AF0346FB7197F951
:101B6C000730002B0BDBFB7903F01F02064997F9BA
:101B7C0007305B09012000FA02F241F8232000BF74
:101B8C000C37BD4680BC704700E100E080B483B0E8
:101B9C0000AF03463960FB7197F90730002B0ADB65
:101BAC003B68DAB20C4997F907301201D2B20B44F8
:101BBC0083F800230AE03B68DAB20849FB7903F0AA
:101BCC000F03043B1201D2B20B441A7600BF0C3740
:101BDC00BD4680BC704700BF00E100E000ED00E0B6
:101BEC0080B489B000AFF860B9607A60FB6803F02C
:101BFC000703FB61FB69C3F10703042B28BF042314
:101C0C00BB61FB690433062B02D9FB69033B00E083
:101C1C0000237B614FF0FF32BB6902FA03F3DA4316
:101C2C00BB681A407B699A404FF0FF317B6901FA1F
:101C3C0003F3D9437B680B40134318462437BD4646
:101C4C0080BC704780B582B000AF78607B68013B88
:101C5C00B3F1807F01D301230FE00A4A7B68013B7B
:101C6C0053600F214FF0FF30FFF790FF054B002220
:101C7C009A60044B07221A60002318460837BD46A9
:101C8C0080BD00BF10E000E080B582B000AF78608E
:101C9C007868FFF72DFF00BF0837BD4680BD80B5C3
:101CAC0086B000AF0346B9607A60FB7300237B619A
:101CBC00FFF742FF78617A68B9687869FFF790FF9F
:101CCC00024697F90F3011461846FFF75FFF00BF29
:101CDC001837BD4680BD80B582B000AF0346FB719E
:101CEC0097F907301846FFF735FF00BF0837BD4698
:101CFC0080BD80B582B000AF78607868FFF7A2FF36
:101D0C00034618460837BD4680BD000080B48BB032
:101D1C0000AF7860396000237B6200233B6261E195
:101D2C0001227B6A02FA03F3FB613B681B68FA69C8
:101D3C001340BB61BA69FB699A4240F050813B6821
:101D4C005B68974A93425ED0954A934275D8954A00
:101D5C00934258D0934A93426FD8934A934252D0AD
:101D6C00914A934269D8914A93424CD08F4A9342FC
:101D7C0063D88F4A934246D08D4A93425DD8122B3A
:101D8C002AD8122B59D801A252F823F0131E00089E
:101D9C00ED1D0008FF1D0008411E0008471E00082D
:101DAC00471E0008471E0008471E0008471E000873
:101DBC00471E0008471E0008471E0008471E000863
:101DCC00471E0008471E0008471E0008471E000853
:101DDC00F51D0008091E0008764A934213D02CE02A
:101DEC003B68DB683B6229E03B68DB6804333B62A1
:101DFC0024E03B68DB6808333B621FE03B68DB6830
:101E0C000C333B621AE03B689B68002B02D1042325
:101E1C003B6213E03B689B68012B05D108233B62B6
:101E2C007B68FA691A6109E008233B627B68FA69EE
:101E3C005A6103E000233B6200E000BFBB69FF2B4B
:101E4C0001D87B6801E07B6804337B61BB69FF2BA5
:101E5C0002D87B6A9B0002E07B6A083B9B003B61DB
:101E6C007B691A680F213B6901FA03F3DB431A40C3
:101E7C00396A3B6901FA03F31A437B691A603B68C0
:101E8C005B6803F08053002B00F0A9804A4B9B69E0
:101E9C00494A43F001039361474B9B6903F00103EB
:101EAC00BB60BB68454A7B6A9B08023352F82330FF
:101EBC00FB607B6A03F003039B000F2202FA03F31F
:101ECC00DB43FA681340FB607B683D4A93420DD0BC
:101EDC007B683C4A934207D07B683B4A934201D1D2
:101EEC00022304E0032302E0012300E000237A6ACA
:101EFC0002F0030292009340FA681343FB602F49EF
:101F0C007B6A9B080233FA6841F823203B685B68C4
:101F1C0003F48033002B06D02C4B1A682B49BB6979
:101F2C0013430B6006E0294B1A68BB69DB43274956
:101F3C0013400B603B685B6803F40033002B06D046
:101F4C00224B5A682149BB6913434B6006E01F4B77
:101F5C005A68BB69DB431D4913404B603B685B68A7
:101F6C0003F48013002B06D0184B9A681749BB69F1
:101F7C0013438B6006E0154B9A68BB69DB4313492E
:101F8C0013408B603B685B6803F40013002B1FD07D
:101F9C000E4BDA680D49BB691343CB601FE000BFE1
:101FAC00000032100000311000002210000021103F
:101FBC00000012100000111000100240000001403F
:101FCC0000080140000C01400010014000040140D9
:101FDC000B4BDA68BB69DB4309491340CB607B6A66
:101FEC0001337B623B681A687B6A22FA03F3002B8D
:101FFC007FF496AE00BF00BF2C37BD4680BC704747
:10200C000004014080B485B000AF78600B467B8043
:10201C007B689A687B881340002B02D00123FB73EA
:10202C0001E00023FB73FB7B18461437BD4680BCD4
:10203C00704780B483B000AF78600B467B8013464A
:10204C007B707B78002B03D07A887B681A6103E065
:10205C007B881A047B681A6100BF0C37BD4680BCB4
:10206C00704780B485B000AF78600B467B807B688E
:10207C00DB68FB607A88FB6813401A04FB68D94361
:10208C007B880B401A437B681A6100BF1437BD462E
:10209C0080BC704780B586B000AF78607B68002B41
:1020AC0001D1012372E27B681B6803F00103002B52
:1020BC0000F08780924B5B6803F00C03042B0CD070
:1020CC008F4B5B6803F00C03082B12D18C4B5B68B5
:1020DC0003F48033B3F5803F0BD1894B1B6803F4B9
:1020EC000033002B6CD07B685B68002B68D101231C
:1020FC004CE27B685B68B3F5803F06D1804B1B6874
:10210C007F4A43F4803313602EE07B685B68002BBE
:10211C000CD17B4B1B687A4A23F480331360784BC9
:10212C001B68774A23F4802313601DE07B685B688F
:10213C00B3F5A02F0CD1724B1B68714A43F480236A
:10214C0013606F4B1B686E4A43F4803313600BE0D3
:10215C006B4B1B686A4A23F480331360684B1B6813
:10216C00674A23F4802313607B685B68002B13D0D1
:10217C00FFF7B4FC386108E0FFF7B0FC02463B699E
:10218C00D31A642B01D9032300E25D4B1B6803F4C3
:10219C000033002BF0D014E0FFF7A0FC386108E00E
:1021AC00FFF79CFC02463B69D31A642B01D903232D
:1021BC00ECE1534B1B6803F40033002BF0D100E02F
:1021CC0000BF7B681B6803F00203002B63D04C4BF1
:1021DC005B6803F00C03002B0BD0494B5B6803F0DE
:1021EC000C03082B1CD1464B5B6803F48033002B8B
:1021FC0016D1434B1B6803F00203002B05D07B6800
:10220C001B69012B01D00123C0E13D4B1B6823F05E
:10221C00F8027B685B69DB00394913430B603AE0D9
:10222C007B681B69002B20D0364B01221A60FFF70C
:10223C0055FC386108E0FFF751FC02463B69D31AA4
:10224C00022B01D90323A1E12D4B1B6803F00203E0
:10225C00002BF0D02A4B1B6823F0F8027B685B69DB
:10226C00DB00274913430B6015E0264B00221A6054
:10227C00FFF734FC386108E0FFF730FC02463B699D
:10228C00D31A022B01D9032380E11D4B1B6803F0E9
:10229C000203002BF0D17B681B6803F00803002BB2
:1022AC003AD07B689B69002B19D0174B01221A601E
:1022BC00FFF714FC386108E0FFF710FC02463B699D
:1022CC00D31A022B01D9032360E10D4B5B6A03F097
:1022DC000203002BF0D0012000F0A6FA1CE00A4B00
:1022EC0000221A60FFF7FAFB38610FE0FFF7F6FBEC
:1022FC0002463B69D31A022B08D9032346E100BFDF
:10230C00001002400000424280044242924B5B6A41
:10231C0003F00203002BE9D17B681B6803F0040374
:10232C00002B00F0A6800023FB758B4BDB6903F0C0
:10233C008053002B0DD1884BDB69874A43F08053C7
:10234C00D361854BDB6903F08053BB60BB68012311
:10235C00FB75824B1B6803F48073002B18D17F4BE9
:10236C001B687E4A43F480731360FFF7B7FB386138
:10237C0008E0FFF7B3FB02463B69D31A642B01D983
:10238C00032303E1754B1B6803F48073002BF0D01F
:10239C007B68DB68012B06D16F4B1B6A6E4A43F0DE
:1023AC00010313622DE07B68DB68002B0CD16A4BB8
:1023BC001B6A694A23F001031362674B1B6A664A66
:1023CC0023F0040313621CE07B68DB68052B0CD143
:1023DC00614B1B6A604A43F0040313625E4B1B6A39
:1023EC005D4A43F0010313620BE05B4B1B6A5A4AD4
:1023FC0023F001031362584B1B6A574A23F0040362
:10240C0013627B68DB68002B15D0FFF767FB386124
:10241C000AE0FFF763FB02463B69D31A41F28832AC
:10242C00934201D90323B1E04B4B1B6A03F0020327
:10243C00002BEED014E0FFF751FB38610AE0FFF7F8
:10244C004DFB02463B69D31A41F28832934201D9C3
:10245C0003239BE0404B1B6A03F00203002BEED1DD
:10246C00FB7D012B05D13C4BDB693B4A23F08053B0
:10247C00D3617B68DB69002B00F08780364B5B688F
:10248C0003F00C03082B61D07B68DB69022B46D16F
:10249C00334B00221A60FFF721FB386108E0FFF78D
:1024AC001DFB02463B69D31A022B01D903236DE0B5
:1024BC00294B1B6803F00073002BF0D17B681B6A5F
:1024CC00B3F5803F08D1244B5B6823F400327B6862
:1024DC009B68214913434B601F4B5B6823F47412B8
:1024EC007B68196A7B685B6A0B431B4913434B601F
:1024FC001B4B01221A60FFF7F1FA386108E0FFF775
:10250C00EDFA02463B69D31A022B01D903233DE0B5
:10251C00114B1B6803F00073002BF0D035E0104B0F
:10252C0000221A60FFF7DAFA386108E0FFF7D6FAF2
:10253C0002463B69D31A022B01D9032326E0064B32
:10254C001B6803F00073002BF0D11EE07B68DB6985
:10255C00012B07D1012319E000100240007000404C
:10256C00600042420B4B5B68FB60FB6803F48032FB
:10257C007B681B6A9A4206D1FB6803F470127B6875
:10258C005B6A9A4201D0012300E0002318461837F9
:10259C00BD4680BD0010024080B584B000AF7860AD
:1025AC0039607B68002B01D10123D0E06A4B1B689A
:1025BC0003F007033A689A4210D9674B1B6823F063
:1025CC00070265493B6813430B60634B1B6803F0C0
:1025DC0007033A689A4201D00123B8E07B681B6874
:1025EC0003F00203002B20D07B681B6803F004036C
:1025FC00002B05D0594B5B68584A43F4E063536099
:10260C007B681B6803F00803002B05D0534B5B68F9
:10261C00524A43F460535360504B5B6823F0F00212
:10262C007B689B684D4913434B607B681B6803F0C8
:10263C000103002B40D07B685B68012B07D1474B13
:10264C001B6803F40033002B15D101237FE07B685A
:10265C005B68022B07D1414B1B6803F00073002B06
:10266C0009D1012373E03D4B1B6803F00203002BDF
:10267C0001D101236BE0394B5B6823F003027B68CB
:10268C005B68364913434B60FFF728FAF8600AE0A1
:10269C00FFF724FA0246FB68D31A41F288329342C0
:1026AC0001D9032353E02D4B5B6803F00C027B68CC
:1026BC005B689B009A42EBD1274B1B6803F0070326
:1026CC003A689A4210D2244B1B6823F00702224925
:1026DC003B6813430B60204B1B6803F007033A68FD
:1026EC009A4201D0012332E07B681B6803F004039B
:1026FC00002B08D0194B5B6823F4E0627B68DB6825
:10270C00164913434B607B681B6803F00803002BCE
:10271C0009D0124B5B6823F460527B681B69DB00A9
:10272C000E4913434B6000F021F802460B4B5B68DB
:10273C001B0903F00F030A49CB5C22FA03F3094A85
:10274C001360094B1B681846FFF786F900231846DF
:10275C001037BD4680BD00BF002002400010024073
:10276C0038320008640000209000002090B48AB039
:10277C0000AF294B3C1D0FCB84E80F0040F2012326
:10278C003B800023FB610023BB6100237B620023A1
:10279C007B6100233B62214B5B68FB61FB6903F0AF
:1027AC000C03042B02D0082B03D02BE01C4B3B62F8
:1027BC002BE0FB699B0C03F00F0328333B4413F80D
:1027CC00243C7B61FB6903F48033002B12D0134B48
:1027DC005B685B0C03F0010328333B4413F8283C83
:1027EC00BB617B690E4A03FB02F2BB69B2FBF3F3DC
:1027FC007B6204E07B690B4A02FB03F37B627B6A1E
:10280C003B6202E0064B3B6200BF3B6A184628372E
:10281C00BD4690BC704700BF283200080010024033
:10282C0000127A0000093D0080B485B000AF7860DA
:10283C000A4B1B680A4AA2FB03235B0A7A6802FB59
:10284C0003F3FB6000BFFB685A1EFA60002BF9D142
:10285C0000BF00BF1437BD4680BC70476400002029
:10286C00D34D621080B582B000AF78607B68002BCE
:10287C0001D1012341E07B6893F83D30DBB2002BA2
:10288C0006D17B68002283F83C207868FEF786FF2F
:10289C007B68022283F83D207B681A687B680433CE
:1028AC001946104600F06AFA7B68012283F846202C
:1028BC007B68012283F83E207B68012283F83F204D
:1028CC007B68012283F840207B68012283F8412039
:1028DC007B68012283F842207B68012283F8432025
:1028EC007B68012283F844207B68012283F8452011
:1028FC007B68012283F83D20002318460837BD462B
:10290C0080BD000080B485B000AF78607B6893F820
:10291C003D30DBB2012B01D0012335E07B68022274
:10292C0083F83D207B681B68DA687B681B6842F083
:10293C000102DA607B681B68164A934209D07B68F7
:10294C001B68B3F1804F04D07B681B68124A93421A
:10295C0011D17B681B689B6803F00703FB60FB6865
:10296C00062B10D07B681B681A687B681B6842F0CA
:10297C0001021A6007E07B681B681A687B681B6899
:10298C0042F001021A60002318461437BD4680BC81
:10299C00704700BF002C01400004004080B582B09D
:1029AC0000AF78607B681B681B6903F00203022B85
:1029BC0022D17B681B68DB6803F00203022B1BD15E
:1029CC007B681B686FF002021A617B6801221A7720
:1029DC007B681B689B6903F00303002B03D07868AA
:1029EC0000F0B1F905E0786800F0A4F9786800F01F
:1029FC00B3F97B6800221A777B681B681B6903F0AC
:102A0C000403042B22D17B681B68DB6803F00403EE
:102A1C00042B1BD17B681B686FF004021A617B6866
:102A2C0002221A777B681B689B6903F44073002BA6
:102A3C0003D0786800F087F905E0786800F07AF93F
:102A4C00786800F089F97B6800221A777B681B682C
:102A5C001B6903F00803082B22D17B681B68DB6819
:102A6C0003F00803082B1BD17B681B686FF008026E
:102A7C001A617B6804221A777B681B68DB6903F098
:102A8C000303002B03D0786800F05DF905E078684B
:102A9C0000F050F9786800F05FF97B6800221A7733
:102AAC007B681B681B6903F01003102B22D17B6819
:102ABC001B68DB6803F01003102B1BD17B681B68B1
:102ACC006FF010021A617B6808221A777B681B680A
:102ADC00DB6903F44073002B03D0786800F033F902
:102AEC0005E0786800F026F9786800F035F97B6825
:102AFC0000221A777B681B681B6903F00103012B0A
:102B0C000ED17B681B68DB6803F00103012B07D136
:102B1C007B681B686FF001021A617868FEF7DCFABB
:102B2C007B681B681B6903F08003802B0ED17B68CC
:102B3C001B68DB6803F08003802B07D17B681B6864
:102B4C006FF080021A61786800F067FA7B681B6886
:102B5C001B6903F04003402B0ED17B681B68DB68BC
:102B6C0003F04003402B07D17B681B686FF04002D9
:102B7C001A61786800F0F9F87B681B681B6903F030
:102B8C002003202B0ED17B681B68DB6803F020032D
:102B9C00202B07D17B681B686FF020021A617868C4
:102BAC0000F032FA00BF0837BD4680BD80B584B056
:102BBC0000AF786039607B6893F83C30012B01D111
:102BCC000223B3E07B68012283F83C207B6802225D
:102BDC0083F83D207B681B689B68FB60FB6823F0D7
:102BEC007703FB60FB6823F47F43FB607B681B6807
:102BFC00FA689A603B681B68B3F5005F3ED0B3F58A
:102C0C00005F00F28780B3F5805F00F08580B3F53C
:102C1C00805F7FD8702B1AD0702B7BD8602B50D054
:102C2C00602B77D8502B3CD0502B73D8402B58D0DE
:102C3C00402B6FD8302B64D0302B6BD8202B60D02E
:102C4C00202B67D8002B5CD0102B5AD062E07B680D
:102C5C0018683B6899683B685A683B68DB6800F009
:102C6C005CF97B681B689B68FB60FB6843F077032F
:102C7C00FB607B681B68FA689A604EE07B6818689A
:102C8C003B6899683B685A683B68DB6800F045F91B
:102C9C007B681B689A687B681B6842F480429A6068
:102CAC003BE07B6818683B6859683B68DB681A46F0
:102CBC0000F0BCF87B681B685021184600F013F933
:102CCC002BE07B6818683B6859683B68DB681A46E0
:102CDC0000F0DAF87B681B686021184600F003F9F5
:102CEC001BE07B6818683B6859683B68DB681A46D0
:102CFC0000F09CF87B681B684021184600F0F3F844
:102D0C000BE07B681A683B681B681946104600F09C
:102D1C00EAF802E000BF00E000BF7B68012283F804
:102D2C003D207B68002283F83C2000231846103796
:102D3C00BD4680BD80B483B000AF786000BF0C3757
:102D4C00BD4680BC704780B483B000AF786000BFD4
:102D5C000C37BD4680BC704780B483B000AF786040
:102D6C0000BF0C37BD4680BC704780B483B000AF49
:102D7C00786000BF0C37BD4680BC704780B485B00E
:102D8C0000AF786039607B681B68FB607B68254A04
:102D9C00934207D07B68B3F1804F03D07B68224A03
:102DAC00934208D1FB6823F07003FB603B685B68BF
:102DBC00FA681343FB607B681A4A934207D07B681E
:102DCC00B3F1804F03D07B68174A934208D1FB685C
:102DDC0023F44073FB603B68DB68FA681343FB60C9
:102DEC00FB6823F080023B685B691343FB607B68E4
:102DFC00FA681A603B689A687B68DA623B681A6802
:102E0C007B689A627B68074A934203D13B681A69D4
:102E1C007B681A637B6801225A6100BF1437BD4678
:102E2C0080BC7047002C01400004004080B487B087
:102E3C0000AFF860B9607A60FB681B6A7B61FB6865
:102E4C001B6A23F00102FB681A62FB689B693B61F9
:102E5C003B6923F0F0033B617B681B013A69134328
:102E6C003B617B6923F00A037B617A69BB6813437E
:102E7C007B61FB683A699A61FB687A691A6200BFE8
:102E8C001C37BD4680BC704780B487B000AFF8607B
:102E9C00B9607A60FB681B6A23F01002FB681A6247
:102EAC00FB689B697B61FB681B6A3B617B6923F454
:102EBC0070437B617B681B037A6913437B613B69BD
:102ECC0023F0A0033B61BB681B013A6913433B61D0
:102EDC00FB687A699A61FB683A691A6200BF1C3711
:102EEC00BD4680BC704780B485B000AF7860396057
:102EFC007B689B68FB60FB6823F07003FB603A689F
:102F0C00FB68134343F00703FB607B68FA689A6025
:102F1C0000BF1437BD4680BC704780B487B000AF8B
:102F2C00F860B9607A603B60FB689B687B617B6989
:102F3C0023F47F437B613B681A027B681A43BB68AE
:102F4C0013437A6913437B61FB687A699A6000BF0B
:102F5C001C37BD4680BC704780B485B000AF78602C
:102F6C0039607B6893F83C30012B01D1022341E09E
:102F7C007B68012283F83C207B68022283F83D2089
:102F8C007B681B685B68FB607B681B689B68BB602D
:102F9C00FB6823F07003FB603B681B68FA68134303
:102FAC00FB607B681B68FA685A607B681B68144A74
:102FBC00934209D07B681B68B3F1804F04D07B68C7
:102FCC001B68104A93420CD1BB6823F08003BB6092
:102FDC003B685B68BA681343BB607B681B68BA6864
:102FEC009A607B68012283F83D207B68002283F87D
:102FFC003C20002318461437BD4680BC704700BFE8
:10300C00002C01400004004080B483B000AF786015
:10301C0000BF0C37BD4680BC704780B483B000AF96
:10302C00786000BF0C37BD4680BC7047014B1868F8
:10303C00704700BF9800002070B500260C4D0D4C59
:10304C00641BA410A64209D100F0DCF800260A4D3E
:10305C000A4C641BA410A64205D170BD55F8043B64
:10306C0098470136EEE755F8043B98470136F2E7EE
:10307C004832000848320008483200084C32000838
:10308C00024B0146186800F02BB800BF98000020D6
:10309C0003460244934200D1704703F8011BF9E741
:1030AC0070B50E4E0C463168054611B900F08CF81F
:1030BC0030602146284600F087F8431C0AD0C41C17
:1030CC0024F00304A04207D0211A284600F07CF813
:1030DC00013001D14FF0FF34204670BDC4010020F7
:1030EC002DE9F041CD1C25F0030508350C2D38BF1A
:1030FC000C25002D074601DBA94205D90C2300261F
:10310C003B603046BDE8F0812E4E00F06DF8336820
:10311C001C4634BB29463846FFF7C2FF431C044605
:10312C004DD134682646002E40D1236831463846AE
:10313C0004EB030800F048F880453AD121680335C8
:10314C006D1A25F0030508350C2D38BF0C253846B3
:10315C002946FFF7A5FF01302BD023682B442360B1
:10316C000EE02268521B1ED40B2A16D96119A342F9
:10317C00256018BF5960636808BF316062514B60AD
:10318C00384604F10B0600F035F826F00706231D2F
:10319C00F21AB6D09B1BA350B3E76268A3420CBFD4
:1031AC0032605A60ECE723466468B2E734467668CE
:1031BC00B9E70C2338463B6000F01CF8A1E725600A
:1031CC00DEE700BFC001002038B50023054D0446E2
:1031DC0008462B60FEF75AFA431C02D12B6803B148
:1031EC00236038BDC8010020014800F009B800BFB9
:1031FC00CC010020014800F004B800BFCC01002035
:10320C0070477047F8B500BFF8BC08BC9E467047C5
:0C321C00F8B500BFF8BC08BC9E46704727
:1032280002030405060708090A0B0C0D0E0F1010FF
:10323800000000000000000001020304060708095E
:043248003101000848
:04324C000D01000868
:103250004000800000010002000801400008014019
:1032600000080140000801400100020004000800BD
:103270001000200040000000000C0140000C014044
:10328000000C0140000C0140000C0140000C01400A
:10329000000C0140002000400080000000080140B8
:1032A00000080140000801404079243019120278DA
:1032B000001000000024F4000004000800100000CA
:1032C0000020004000800000000C0140000C014084
:1032D000000C0140000C0140000C0140000C0140BA
:1032E00010000000010000009C0000200000000011
:1032F00000000000000000000000000000000000CE
:1033000000000000000000000000000000000000BD
:1033100000000000000000000000000000000000AD
:10332000000000000000000000000000000000009D
:10333000000000000000000000000000000000008D
:0C33400000000000000000000000000081
:04000005080019EDE9
:00000001FF
